{
  "_format": "hh-sol-artifact-1",
  "contractName": "DoctorOracle",
  "sourceName": "contracts/DoctorOracle.sol",
  "abi": [
    {
      "inputs": [
        {
          "internalType": "address",
          "name": "router",
          "type": "address"
        },
        {
          "internalType": "bytes32",
          "name": "donId",
          "type": "bytes32"
        }
      ],
      "stateMutability": "nonpayable",
      "type": "constructor"
    },
    {
      "inputs": [],
      "name": "EmptyArgs",
      "type": "error"
    },
    {
      "inputs": [],
      "name": "EmptySource",
      "type": "error"
    },
    {
      "inputs": [
        {
          "internalType": "address",
          "name": "patient",
          "type": "address"
        }
      ],
      "name": "InsufficientBalance",
      "type": "error"
    },
    {
      "inputs": [],
      "name": "NoInlineSecrets",
      "type": "error"
    },
    {
      "inputs": [],
      "name": "OnlyRouterCanFulfill",
      "type": "error"
    },
    {
      "anonymous": false,
      "inputs": [
        {
          "indexed": true,
          "internalType": "bytes32",
          "name": "requestId",
          "type": "bytes32"
        },
        {
          "indexed": true,
          "internalType": "address",
          "name": "patientsAddress",
          "type": "address"
        },
        {
          "indexed": false,
          "internalType": "bytes",
          "name": "response",
          "type": "bytes"
        },
        {
          "indexed": false,
          "internalType": "bytes",
          "name": "err",
          "type": "bytes"
        }
      ],
      "name": "DoctorOracleResponse",
      "type": "event"
    },
    {
      "anonymous": false,
      "inputs": [
        {
          "indexed": true,
          "internalType": "address",
          "name": "from",
          "type": "address"
        },
        {
          "indexed": true,
          "internalType": "address",
          "name": "to",
          "type": "address"
        }
      ],
      "name": "OwnershipTransferRequested",
      "type": "event"
    },
    {
      "anonymous": false,
      "inputs": [
        {
          "indexed": true,
          "internalType": "address",
          "name": "from",
          "type": "address"
        },
        {
          "indexed": true,
          "internalType": "address",
          "name": "to",
          "type": "address"
        }
      ],
      "name": "OwnershipTransferred",
      "type": "event"
    },
    {
      "anonymous": false,
      "inputs": [
        {
          "indexed": true,
          "internalType": "bytes32",
          "name": "id",
          "type": "bytes32"
        }
      ],
      "name": "RequestFulfilled",
      "type": "event"
    },
    {
      "anonymous": false,
      "inputs": [
        {
          "indexed": true,
          "internalType": "bytes32",
          "name": "id",
          "type": "bytes32"
        }
      ],
      "name": "RequestSent",
      "type": "event"
    },
    {
      "inputs": [],
      "name": "acceptOwnership",
      "outputs": [],
      "stateMutability": "nonpayable",
      "type": "function"
    },
    {
      "inputs": [
        {
          "internalType": "bytes32",
          "name": "requestId",
          "type": "bytes32"
        },
        {
          "internalType": "bytes",
          "name": "response",
          "type": "bytes"
        },
        {
          "internalType": "bytes",
          "name": "err",
          "type": "bytes"
        }
      ],
      "name": "handleOracleFulfillment",
      "outputs": [],
      "stateMutability": "nonpayable",
      "type": "function"
    },
    {
      "inputs": [],
      "name": "owner",
      "outputs": [
        {
          "internalType": "address",
          "name": "",
          "type": "address"
        }
      ],
      "stateMutability": "view",
      "type": "function"
    },
    {
      "inputs": [
        {
          "internalType": "address",
          "name": "",
          "type": "address"
        }
      ],
      "name": "s_balances",
      "outputs": [
        {
          "internalType": "uint256",
          "name": "",
          "type": "uint256"
        }
      ],
      "stateMutability": "view",
      "type": "function"
    },
    {
      "inputs": [],
      "name": "s_donId",
      "outputs": [
        {
          "internalType": "bytes32",
          "name": "",
          "type": "bytes32"
        }
      ],
      "stateMutability": "view",
      "type": "function"
    },
    {
      "inputs": [
        {
          "internalType": "bytes32",
          "name": "",
          "type": "bytes32"
        }
      ],
      "name": "s_errors",
      "outputs": [
        {
          "internalType": "bytes",
          "name": "",
          "type": "bytes"
        }
      ],
      "stateMutability": "view",
      "type": "function"
    },
    {
      "inputs": [],
      "name": "s_lastRequestId",
      "outputs": [
        {
          "internalType": "bytes32",
          "name": "",
          "type": "bytes32"
        }
      ],
      "stateMutability": "view",
      "type": "function"
    },
    {
      "inputs": [
        {
          "internalType": "bytes32",
          "name": "",
          "type": "bytes32"
        }
      ],
      "name": "s_patientAddresses",
      "outputs": [
        {
          "internalType": "address",
          "name": "",
          "type": "address"
        }
      ],
      "stateMutability": "view",
      "type": "function"
    },
    {
      "inputs": [
        {
          "internalType": "bytes32",
          "name": "",
          "type": "bytes32"
        }
      ],
      "name": "s_responses",
      "outputs": [
        {
          "internalType": "bytes",
          "name": "",
          "type": "bytes"
        }
      ],
      "stateMutability": "view",
      "type": "function"
    },
    {
      "inputs": [
        {
          "internalType": "string",
          "name": "source",
          "type": "string"
        },
        {
          "internalType": "enum FunctionsRequest.Location",
          "name": "secretsLocation",
          "type": "uint8"
        },
        {
          "internalType": "bytes",
          "name": "encryptedSecretsReference",
          "type": "bytes"
        },
        {
          "internalType": "string[]",
          "name": "args",
          "type": "string[]"
        },
        {
          "internalType": "bytes[]",
          "name": "bytesArgs",
          "type": "bytes[]"
        },
        {
          "internalType": "uint64",
          "name": "subscriptionId",
          "type": "uint64"
        },
        {
          "internalType": "uint32",
          "name": "callbackGasLimit",
          "type": "uint32"
        }
      ],
      "name": "sendRequest",
      "outputs": [
        {
          "internalType": "bytes32",
          "name": "requestId",
          "type": "bytes32"
        }
      ],
      "stateMutability": "nonpayable",
      "type": "function"
    },
    {
      "inputs": [
        {
          "internalType": "bytes32",
          "name": "newDonId",
          "type": "bytes32"
        }
      ],
      "name": "setDonId",
      "outputs": [],
      "stateMutability": "nonpayable",
      "type": "function"
    },
    {
      "inputs": [
        {
          "internalType": "address",
          "name": "to",
          "type": "address"
        }
      ],
      "name": "transferOwnership",
      "outputs": [],
      "stateMutability": "nonpayable",
      "type": "function"
    },
    {
      "inputs": [
        {
          "internalType": "address",
          "name": "patient",
          "type": "address"
        },
        {
          "internalType": "uint256",
          "name": "newBalance",
          "type": "uint256"
        }
      ],
      "name": "updateBalance",
      "outputs": [],
      "stateMutability": "nonpayable",
      "type": "function"
    }
  ],
  "bytecode": "0x60a06040523480156200001157600080fd5b5060405162001cd238038062001cd2833981016040819052620000349162000183565b6001600160a01b0382166080523380600081620000985760405162461bcd60e51b815260206004820152601860248201527f43616e6e6f7420736574206f776e657220746f207a65726f000000000000000060448201526064015b60405180910390fd5b600080546001600160a01b0319166001600160a01b0384811691909117909155811615620000cb57620000cb81620000d8565b50505060025550620001bf565b336001600160a01b03821603620001325760405162461bcd60e51b815260206004820152601760248201527f43616e6e6f74207472616e7366657220746f2073656c6600000000000000000060448201526064016200008f565b600180546001600160a01b0319166001600160a01b0383811691821790925560008054604051929316917fed8889f560326eb138920d842192f0eb3dd22b4f139c87a2c57538e05bae12789190a350565b600080604083850312156200019757600080fd5b82516001600160a01b0381168114620001af57600080fd5b6020939093015192949293505050565b608051611af0620001e2600039600081816102bc0152610bbc0152611af06000f3fe608060405234801561001057600080fd5b50600436106100df5760003560e01c80638da5cb5b1161008c578063b1e2174911610066578063b1e21749146101df578063dfd6edd2146101e8578063e0b1cccb146101f1578063f2fde38b1461020457600080fd5b80638da5cb5b1461017157806396a23c0714610196578063ab32eb69146101bf57600080fd5b806366289bcb116100bd57806366289bcb1461014357806378ca5de71461015657806379ba50971461016957600080fd5b80630913e5c5146100e45780630ca761751461010d578063231c161914610122575b600080fd5b6100f76100f236600461125f565b610217565b60405161010491906112be565b60405180910390f35b61012061011b366004611390565b6102b1565b005b6101356101303660046114cb565b610323565b604051908152602001610104565b6100f761015136600461125f565b610487565b61012061016436600461125f565b6104a0565b6101206104ad565b6000546001600160a01b03165b6040516001600160a01b039091168152602001610104565b61017e6101a436600461125f565b6005602052600090815260409020546001600160a01b031681565b6101356101cd3660046115d9565b60046020526000908152604090205481565b61013560035481565b61013560025481565b6101206101ff3660046115f4565b610570565b6101206102123660046115d9565b610594565b600660205260009081526040902080546102309061161e565b80601f016020809104026020016040519081016040528092919081815260200182805461025c9061161e565b80156102a95780601f1061027e576101008083540402835291602001916102a9565b820191906000526020600020905b81548152906001019060200180831161028c57829003601f168201915b505050505081565b336001600160a01b037f00000000000000000000000000000000000000000000000000000000000000001614610313576040517fc6829f8300000000000000000000000000000000000000000000000000000000815260040160405180910390fd5b61031e8383836105a8565b505050565b600061032f3383610637565b6103786040805161010081019091528060008152602001600081526020016000815260200160608152602001606081526020016060815260200160608152602001606081525090565b6103bf6000808f8f8080601f016020809104026020016040519081016040528093929190818152602001838380828437600092019190915250879594939250506106f39050565b602081018b60028111156103d5576103d5611658565b908160028111156103e8576103e8611658565b8152505089898080601f016020809104026020016040519081016040528093929190818152602001838380828437600092019190915250505050608082015286156104415761044161043a888a611692565b829061078a565b841561045b5761045b610454868861171f565b82906107b4565b610471610467826107de565b8585600254610bb7565b60038190559d9c50505050505050505050505050565b600760205260009081526040902080546102309061161e565b6104a8610c89565b600255565b6001546001600160a01b0316331461050c5760405162461bcd60e51b815260206004820152601660248201527f4d7573742062652070726f706f736564206f776e65720000000000000000000060448201526064015b60405180910390fd5b600080543373ffffffffffffffffffffffffffffffffffffffff19808316821784556001805490911690556040516001600160a01b0390921692909183917f8be0079c531659141344cd1fd0a4f28419497f9722a3daafe3b4186f6b6457e091a350565b610578610c89565b6001600160a01b03909116600090815260046020526040902055565b61059c610c89565b6105a581610ce5565b50565b60008381526006602052604090206105c083826117d5565b5060008381526007602052604090206105d982826117d5565b50600083815260056020526040908190205490516001600160a01b039091169084907f4b32009425bcc99f31761721299ab2c267893064531155e0e44994e88dd934f99061062a9086908690611895565b60405180910390a3505050565b600061065161064c3a63ffffffff85166118d9565b610d9b565b6001600160a01b0384166000908152600460205260409020546bffffffffffffffffffffffff9190911691508111156106c1576040517f897f6c580000000000000000000000000000000000000000000000000000000081526001600160a01b0384166004820152602401610503565b6001600160a01b038316600090815260046020526040812080548392906106e99084906118f0565b9091555050505050565b805160000361072e576040517f22ce3edd00000000000000000000000000000000000000000000000000000000815260040160405180910390fd5b8383600281111561074157610741611658565b9081600281111561075457610754611658565b9052506040840182801561076a5761076a611658565b9081801561077a5761077a611658565b9052506060909301929092525050565b80516000036107ac5760405163fe936cb760e01b815260040160405180910390fd5b60c090910152565b80516000036107d65760405163fe936cb760e01b815260040160405180910390fd5b60e090910152565b606060006107ed610100610db1565b90506108376040518060400160405280600c81526020017f636f64654c6f636174696f6e000000000000000000000000000000000000000081525082610dd290919063ffffffff16565b825161085590600281111561084e5761084e611658565b8290610deb565b60408051808201909152600881527f6c616e67756167650000000000000000000000000000000000000000000000006020820152610894908290610dd2565b60408301516108ab90801561084e5761084e611658565b60408051808201909152600681527f736f75726365000000000000000000000000000000000000000000000000000060208201526108ea908290610dd2565b60608301516108fa908290610dd2565b60a083015151156109545760408051808201909152601081527f726571756573745369676e6174757265000000000000000000000000000000006020820152610944908290610dd2565b60a0830151610954908290610e28565b60c08301515115610a015760408051808201909152600481527f6172677300000000000000000000000000000000000000000000000000000000602082015261099e908290610dd2565b6109a781610e35565b60005b8360c00151518110156109f7576109e78460c0015182815181106109d0576109d0611903565b602002602001015183610dd290919063ffffffff16565b6109f081611919565b90506109aa565b50610a0181610e59565b60808301515115610b0257600083602001516002811115610a2457610a24611658565b03610a5b576040517fa80d31f700000000000000000000000000000000000000000000000000000000815260040160405180910390fd5b60408051808201909152600f81527f736563726574734c6f636174696f6e00000000000000000000000000000000006020820152610a9a908290610dd2565b610ab38360200151600281111561084e5761084e611658565b60408051808201909152600781527f73656372657473000000000000000000000000000000000000000000000000006020820152610af2908290610dd2565b6080830151610b02908290610e28565b60e08301515115610baf5760408051808201909152600981527f62797465734172677300000000000000000000000000000000000000000000006020820152610b4c908290610dd2565b610b5581610e35565b60005b8360e0015151811015610ba557610b958460e001518281518110610b7e57610b7e611903565b602002602001015183610e2890919063ffffffff16565b610b9e81611919565b9050610b58565b50610baf81610e59565b515192915050565b6000807f00000000000000000000000000000000000000000000000000000000000000006001600160a01b031663461d27628688600188886040518663ffffffff1660e01b8152600401610c0f959493929190611932565b6020604051808303816000875af1158015610c2e573d6000803e3d6000fd5b505050506040513d601f19601f82011682018060405250810190610c52919061197c565b60405190915081907f1131472297a800fee664d1d89cfa8f7676ff07189ecc53f80bbb5f4969099db890600090a295945050505050565b6000546001600160a01b03163314610ce35760405162461bcd60e51b815260206004820152601660248201527f4f6e6c792063616c6c61626c65206279206f776e6572000000000000000000006044820152606401610503565b565b336001600160a01b03821603610d3d5760405162461bcd60e51b815260206004820152601760248201527f43616e6e6f74207472616e7366657220746f2073656c660000000000000000006044820152606401610503565b6001805473ffffffffffffffffffffffffffffffffffffffff19166001600160a01b0383811691821790925560008054604051929316917fed8889f560326eb138920d842192f0eb3dd22b4f139c87a2c57538e05bae12789190a350565b6000610dab82633b9aca006118d9565b92915050565b610db961122a565b8051610dc59083610e77565b5060006020820152919050565b610ddf8260038351610eee565b815161031e9082611015565b8151610df89060c261103d565b50610e248282604051602001610e1091815260200190565b604051602081830303815290604052610e28565b5050565b610ddf8260028351610eee565b610e408160046110a6565b600181602001818151610e539190611995565b90525050565b610e648160076110a6565b600181602001818151610e5391906118f0565b604080518082019091526060815260006020820152610e976020836119a8565b15610ebf57610ea76020836119a8565b610eb29060206118f0565b610ebc9083611995565b91505b602080840183905260405180855260008152908184010181811015610ee357600080fd5b604052509192915050565b60178167ffffffffffffffff1611610f1b578251610f159060e0600585901b16831761103d565b50505050565b60ff8167ffffffffffffffff1611610f5d578251610f44906018611fe0600586901b161761103d565b508251610f159067ffffffffffffffff831660016110bd565b61ffff8167ffffffffffffffff1611610fa0578251610f87906019611fe0600586901b161761103d565b508251610f159067ffffffffffffffff831660026110bd565b63ffffffff8167ffffffffffffffff1611610fe5578251610fcc90601a611fe0600586901b161761103d565b508251610f159067ffffffffffffffff831660046110bd565b8251610ffc90601b611fe0600586901b161761103d565b508251610f159067ffffffffffffffff831660086110bd565b60408051808201909152606081526000602082015261103683838451611142565b9392505050565b6040805180820190915260608152600060208201528251516000611062826001611995565b905084602001518210611083576110838561107e8360026118d9565b611213565b845160208382010185815350805182111561109c578181525b5093949350505050565b815161031e90601f611fe0600585901b161761103d565b60408051808201909152606081526000602082015283515160006110e18285611995565b905085602001518111156110fe576110fe8661107e8360026118d9565b6000600161110e86610100611aae565b61111891906118f0565b90508651828101878319825116178152508051831115611136578281525b50959695505050505050565b604080518082019091526060815260006020820152825182111561116557600080fd5b83515160006111748483611995565b90508560200151811115611191576111918661107e8360026118d9565b8551805183820160200191600091808511156111ab578482525b505050602086015b602086106111eb57805182526111ca602083611995565b91506111d7602082611995565b90506111e46020876118f0565b95506111b3565b51815160001960208890036101000a0190811690199190911617905250849150509392505050565b815161121f8383610e77565b50610f158382611015565b6040518060400160405280611252604051806040016040528060608152602001600081525090565b8152602001600081525090565b60006020828403121561127157600080fd5b5035919050565b6000815180845260005b8181101561129e57602081850181015186830182015201611282565b506000602082860101526020601f19601f83011685010191505092915050565b6020815260006110366020830184611278565b634e487b7160e01b600052604160045260246000fd5b604051601f8201601f1916810167ffffffffffffffff81118282101715611310576113106112d1565b604052919050565b600067ffffffffffffffff831115611332576113326112d1565b611345601f8401601f19166020016112e7565b905082815283838301111561135957600080fd5b828260208301376000602084830101529392505050565b600082601f83011261138157600080fd5b61103683833560208501611318565b6000806000606084860312156113a557600080fd5b83359250602084013567ffffffffffffffff808211156113c457600080fd5b6113d087838801611370565b935060408601359150808211156113e657600080fd5b506113f386828701611370565b9150509250925092565b60008083601f84011261140f57600080fd5b50813567ffffffffffffffff81111561142757600080fd5b60208301915083602082850101111561143f57600080fd5b9250929050565b80356003811061145557600080fd5b919050565b60008083601f84011261146c57600080fd5b50813567ffffffffffffffff81111561148457600080fd5b6020830191508360208260051b850101111561143f57600080fd5b803567ffffffffffffffff8116811461145557600080fd5b803563ffffffff8116811461145557600080fd5b600080600080600080600080600080600060e08c8e0312156114ec57600080fd5b67ffffffffffffffff808d35111561150357600080fd5b6115108e8e358f016113fd565b909c509a5061152160208e01611446565b99508060408e0135111561153457600080fd5b6115448e60408f01358f016113fd565b909950975060608d013581101561155a57600080fd5b61156a8e60608f01358f0161145a565b909750955060808d013581101561158057600080fd5b506115918d60808e01358e0161145a565b90945092506115a260a08d0161149f565b91506115b060c08d016114b7565b90509295989b509295989b9093969950565b80356001600160a01b038116811461145557600080fd5b6000602082840312156115eb57600080fd5b611036826115c2565b6000806040838503121561160757600080fd5b611610836115c2565b946020939093013593505050565b600181811c9082168061163257607f821691505b60208210810361165257634e487b7160e01b600052602260045260246000fd5b50919050565b634e487b7160e01b600052602160045260246000fd5b600067ffffffffffffffff821115611688576116886112d1565b5060051b60200190565b60006116a56116a08461166e565b6112e7565b80848252602080830192508560051b8501368111156116c357600080fd5b855b8181101561171357803567ffffffffffffffff8111156116e55760008081fd5b870136601f8201126116f75760008081fd5b611705368235868401611318565b8652509382019382016116c5565b50919695505050505050565b600061172d6116a08461166e565b80848252602080830192508560051b85013681111561174b57600080fd5b855b8181101561171357803567ffffffffffffffff81111561176d5760008081fd5b61177936828a01611370565b86525093820193820161174d565b601f82111561031e57600081815260208120601f850160051c810160208610156117ae5750805b601f850160051c820191505b818110156117cd578281556001016117ba565b505050505050565b815167ffffffffffffffff8111156117ef576117ef6112d1565b611803816117fd845461161e565b84611787565b602080601f83116001811461183857600084156118205750858301515b600019600386901b1c1916600185901b1785556117cd565b600085815260208120601f198616915b8281101561186757888601518255948401946001909101908401611848565b50858210156118855787850151600019600388901b60f8161c191681555b5050505050600190811b01905550565b6040815260006118a86040830185611278565b82810360208401526118ba8185611278565b95945050505050565b634e487b7160e01b600052601160045260246000fd5b8082028115828204841417610dab57610dab6118c3565b81810381811115610dab57610dab6118c3565b634e487b7160e01b600052603260045260246000fd5b60006001820161192b5761192b6118c3565b5060010190565b67ffffffffffffffff8616815260a06020820152600061195560a0830187611278565b61ffff9590951660408301525063ffffffff92909216606083015260809091015292915050565b60006020828403121561198e57600080fd5b5051919050565b80820180821115610dab57610dab6118c3565b6000826119c557634e487b7160e01b600052601260045260246000fd5b500690565b600181815b80851115611a055781600019048211156119eb576119eb6118c3565b808516156119f857918102915b93841c93908002906119cf565b509250929050565b600082611a1c57506001610dab565b81611a2957506000610dab565b8160018114611a3f5760028114611a4957611a65565b6001915050610dab565b60ff841115611a5a57611a5a6118c3565b50506001821b610dab565b5060208310610133831016604e8410600b8410161715611a88575081810a610dab565b611a9283836119ca565b8060001904821115611aa657611aa66118c3565b029392505050565b60006110368383611a0d56fea26469706673582212201ed8e9e413d71f0d27a09fc665c4a81299703fb992fdd3a3afc63168683c3c5064736f6c63430008130033",
  "linkReferences": {},
  "deployedLinkReferences": {}
}